:020000040800F2
:10000000780600202902000867020008690200083B
:100010006B0200086D0200086F020008000000007B
:100020000000000000000000000000007102000855
:100030007302000800000000750200087702000843
:1000400079020008790200087902000879020008A4
:100050007902000879020008790200087902000894
:100060007902000879020008790200087902000884
:100070007902000879020008790200087902000874
:100080007902000879020008790200087902000864
:100090007902000879020008790200087902000854
:1000A0007902000879020008790200087902000844
:1000B0007902000879020008790200087902000834
:1000C0007902000879020008790200087902000824
:1000D0007902000879020008790200087902000814
:1000E0006D0500087902000879020008790200080D
:1000F00079020008790200087902000879020008F4
:1001000079020008790200087902000879020008E3
:1001100079020008790200087902000879020008D3
:1001200079020008790200087902000879020008C3
:1001300079020008790200087902000879020008B3
:1001400079020008790200087902000879020008A3
:100150007902000879020008790200087902000893
:100160007902000879020008790200087902000883
:1001700079020008790200087902000800000000F6
:10018000790200087902000800F002F800F03CF85B
:100190000AA090E8000C82448344AAF10107DA45E2
:1001A00001D100F031F8AFF2090EBAE80F0013F0F8
:1001B000010F18BFFB1A43F001031847280E000077
:1001C000480E0000103A24BF78C878C1FAD8520708
:1001D00024BF30C830C144BF04680C6070470000C1
:1001E0000023002400250026103A28BF78C1FBD840
:1001F000520728BF30C148BF0B6070471FB500F0E1
:10020000DEFE1FBD10B510BD00F057F81146FFF718
:10021000F5FF00F021FB00F075F803B4FFF7F2FFE3
:1002200003BC00F07DF8000017481849184B9942AC
:100230003CBF50F8042B41F8042BF8D3154B16495A
:100240004FF000028B4238BF43F8042BFAD3DFF89B
:100250004C00016841F470010160BFF34F8FBFF3A0
:100260006F8F0F480047FEE7FEE7FEE7FEE7FEE779
:10027000FEE7FEE7FEE7FEE7FEE7000009480A4961
:100280000A4A0B4B704700000810000800000020CD
:1002900008000020080000207806002088ED00E01B
:1002A00089010008780000207806002078020020EC
:1002B00078020020704770477047754600F02CF8B0
:1002C000AE4605006946534620F00700854618B043
:1002D00020B5FFF7D3FFBDE820404FF000064FF0F8
:1002E00000074FF000084FF0000BAC46ACE8C00927
:1002F000ACE8C009ACE8C009ACE8C00921F00701CE
:100300008D46704710B50446AFF300802046BDE827
:100310001040FFF782BF000000487047080000202F
:1003200001491820ABBEFEE726000200704700001E
:100330000421C4F20101086840F48070086040F2B2
:100340000831C5F20401086840F4800008600868BC
:1003500020F470100860086820F4403008600868D5
:1003600040F480300860086820F01F000860704783
:1003700080B582B041F24C01C4F20201086840F439
:100380000050086041F22C01C4F20201086840F4F8
:1003900000500860086820F40050086000F050F831
:1003A000FFF7C6FF00F06AF80821C5F204010868EB
:1003B00020F0010008600C22C5F2040201921068CE
:1003C00020F018001060106820F02000106030232A
:1003D000C5F20403186820F00F001860186800F4D4
:1003E000F8601860186840F4C0701860B023C5F257
:1003F0000403186820F0400018601423C5F20403B9
:10040000186820F4E0101860186840F44020186064
:10041000106820F400501060106820F440601060F4
:10042000086840F001000860FFE70020C5F2040002
:100430000068C00708B9FFE7F7E702B080BD000019
:1004400041F24C01C4F20201086840F0010008606A
:100450004FF09041086840F00C0008600C21C4F691
:100460000001086820F00C0008602C21C4F600018F
:10047000086840F0020008607047000081B0082062
:10048000C5F2040000688000002808D5FFE70821B5
:10049000C5F20401086820F000500860FFE7082159
:1004A000C5F20401086840F0805008604FF4C8604D
:1004B0000090FFE7009820B1FFE700980138009016
:1004C000F8E701B07047000080B500F02DF841F268
:1004D0005801C4F20201086840F00050086047F279
:1004E0000041C4F20001086820F0010008600868BB
:1004F00020F038000860086840F03800086008689C
:1005000020F00400086047F23C42C4F20002106888
:1005100020F007001060086840F00100086000202B
:1005200000F018F880BD000041F24C01C4F2020155
:10053000086840F0010008604FF09041086840F4FE
:10054000407008600C21C4F60001086820F4407077
:100550000860704781B0009000986FF31F3047F239
:100560000841C4F20001086001B0704780B540F254
:100570001441C4F20101086840F40050086040F2E0
:100580006800C2F200000068B0F5706F07D3FFE7A3
:1005900040F20001C2F2000100200870FFE740F2C3
:1005A0006800C2F200000068FF2807D8FFE740F2A9
:1005B0000001C2F2000101200870FFE740F20000D4
:1005C000C2F200000078012809D1FFE740F268017B
:1005D000C2F20001086800F58070086008E040F28F
:1005E0006801C2F200010868A0F580700860FFE7AA
:1005F00040F26800C2F200000068FFF7ABFF80BD68
:1006000080B582B041F24C01C4F20201086840F0AA
:100610000400086041F26001C4F20201086840F081
:100620000100086040F60002C4F60002106820F0E5
:100630004060106040F60C02C4F60002106820F022
:1006400040601060086840F0010008601421C4F2A6
:100650000101086820F070000860086840F0200080
:10066000086040F20C41C4F20101086840F40050F7
:10067000086040F20041C4F20101086840F40050F3
:1006800008602820019000F0ABF80198002100F0EC
:10069000BFF802B080BD000041F24C01C4F202017B
:1006A000086840F00100086041F25801C4F20201FC
:1006B000086840F0010008604FF09041086820F49D
:1006C00040600860086840F4006008600821C4F6D3
:1006D0000001086840F4406008600C21C4F6000185
:1006E000086820F4406008602021C4F60001086812
:1006F00020F470000860086840F480100860202230
:10070000C4F20002106840F0010010604FF0804118
:10071000086820F0100008602823C4F2000332208B
:1007200018602C23C4F2000340F6FF7018601823F1
:10073000C4F2000318684FF68F7CCFF6FE7C00EA07
:100740000C001860186840F020001860186840F02D
:1007500040001860186840F008001860106820F029
:1007600002001060106840F0010010603422C4F2F2
:1007700000024FF47A601060086840F001000860E1
:100780007047000081B041F20801C4F2020108681C
:1007900020F0030008600868086041F20001C4F21C
:1007A00002010091086820F0F0000860086840F03D
:1007B00070000860086840F008000860086840F0B1
:1007C00004000860FFE741F20000C4F20200006884
:1007D0008007002801D4FFE7F5E701B0704700006B
:1007E00081B08DF803009DF9030000280ED4FFE7C7
:1007F0009DF9031001F01F02012090404A094EF2BA
:100800000011CEF2000141F82200FFE701B070476D
:1008100082B08DF8070000919DF9070000280AD4E6
:10082000FFE7009800019DF907104EF20042CEF25A
:10083000000288540BE0009800019DF8071001F0B9
:100840000F014EF61452CEF200028854FFE702B0B8
:10085000704700000000000080B586B000200590C1
:10086000FFF790FFFFF784FDFFF72EFEFFF7C8FEAE
:10087000FFF712FFFFE70821C5F20401086840F006
:1008800004000860FFE70020C5F20400006840078C
:10089000002801D4FFE7F6E74020C5F20400016814
:1008A00040F26C00C2F200000160006800F005FA3E
:1008B00041EC100B51EC100B9FED1F0B53EC102B68
:1008C0000293019200F00CFA41EC100B51EC100B6A
:1008D0009FED1B0B53EC102B0493039200F066F872
:1008E00041EC100B51EC100B00F02EF8014640F2D9
:1008F0007000C2F200000160006800F0EFFA019A97
:10090000029B41EC100B51EC100B00F04FF8039AD6
:10091000049B41EC100B51EC100B00F0E1F941ECA1
:10092000100B51EC100B00F09BF93421C4F20001C4
:100930000860A0E700BF00BF6666666666660A409C
:10094000000000000000B04021F0004201F0004330
:10095000A2F16052B2F5801F28BFD2F17F6C0BD993
:100960005FEA001C43EAC20242EB507018BF7047B6
:1009700028BF20F001007047B2F5801FBCBF1846A9
:1009800070474FEA410C1CF5001F02D2084600F0E8
:1009900023BB70B500F04EFA00000089FFF7F6BFE8
:1009A0004FF00040A0F58000704700002DE9C041E5
:1009B00030B4DFF8A4C23CEA111418BF3CEA1314A7
:1009C00000F0ED801CEA111481EA030544EAD574B5
:1009D00018BF1CEA131500F0C880A4EB050404F14D
:1009E0007F7404F500344FF0004545EAC12145EA23
:1009F000C32341EA505143EA52534FEAC0204FEA21
:100A0000C222994208BF904200F09D804FEA1365D0
:100A10000FF24416765D4FEA134506FB05F7C7F162
:100A2000807706FB07F74FEAD737A7FB03687642C4
:100A3000A7FB06CEC8F5803838BFA8F1010807FB30
:100A400008E6A6FB028C4FF0000EE6FB03CEDCF1BD
:100A5000000CCEF1004E38BFAEF1010EA6FB0C58D3
:100A60004FF00007E6FB0E87A1FB08C6A0FB07CEF0
:100A700016EB0E064FF0000545F10005E1FB07659A
:100A800015F1E04E7EBFA4F580345FEA46066D4165
:100A900016F1800745F100054FEA172747EA056779
:100AA0004FEA15254FEA0666A6F1DE46B6F1805FED
:100AB00020D9384605EBC47124F0010C01EB0C1170
:100AC000BCF1FE6F02D8F0BCBDE8008124425CBFDF
:100AD00001F5801E9EEAC47F02D4F0BCBDE800810F
:100AE000244200F13980A1F1C041F0BCBDE80041D1
:100AF00000F0EEB94FEAD02040EA41504FEAD12150
:100B00004FEAD22242EA43524FEAD323A7FB02869E
:100B100007FB036605FB02661EEA0E0F58BFA6EB35
:100B20000056B6EB00564FEA520E4EEAC37E18EB63
:100B30000E0E56EB530EBCD518EB02085E417F1C1F
:100B400055F10005B5E74FF480154FF000074FF061
:100B500000064FF00008ACE701F1C04101F0004190
:100B60004FF00000F0BCBDE800810CEA131511EA5B
:100B70000C1F00D00CE013EA0C1F00F026804FF091
:100B8000000081EA030101F00041F0BCBDE80081F2
:100B9000F0BCBDE8004181EA030100F099B9F0BC66
:100BA000BDE8004170B500F045F900BF097EFC3E8C
:100BB00000F007B84FF0000081EA030101F00041A6
:100BC000704781EA030100F083B9F0BCBDE8004141
:100BD00022494FF000007047FFFDFBF9F7F5F4F2F2
:100BE000F0EEEDEBE9E8E6E4E3E1E0DEDDDBDAD8C8
:100BF000D7D5D4D3D1D0CFCDCCCBCAC8C7C6C5C426
:100C0000C2C1C0BFBEBDBCBBBAB9B8B7B6B5B4B33C
:100C1000B2B1B0AFAEADACABAAA9A8A8A7A6A5A427
:100C2000A3A3A2A1A09F9F9E9D9C9C9B9A999998EB
:100C30009797969595949393929191908F8F8E8E8E
:100C40008D8C8C8B8B8A898988888787868585841B
:100C500084838382828181800000FF070000F87F07
:100C60004FEA1153A3F58063D3F11E03A8BFD3F15C
:100C7000200C08DB4FF0004242EAC12252EA5052F7
:100C800032FA03F0704709420BD4102BC4BF002086
:100C9000704703F5787CBCF1FF3F05D04FF0FF3083
:100CA00070474FF00000704770B500F0C3F800BF08
:100CB0004992248000207047F0E7B0FA80F310FAE0
:100CC00003F10AD0C3F11D0303F580634FEA035219
:100CD0004FEA415002EBD12170474FF000007047BE
:100CE00070B5DFF848C11CEA111E1EBF1CEA1315BF
:100CF0009EEA0C0F95EA0C0F00F06F8081EA030466
:100D00004EEAD47EAE4421EA4C1123EA4C1341F45E
:100D1000801143F48013AEF17F7EA1FB024CA0FB57
:100D20000365361955EB0C05A1FB034C4CF1000390
:100D3000A0FB021C16EB0C06654153F100030942AF
:100D400018BF46F0010613F4007F0BD14FEA0331C0
:100D50004FEA053041EA155140EA165034036FF06E
:100D600003020AE04FEAC3214FEAC52041EA555188
:100D700040EA5650F4026FF0020202EB2E4201EB01
:100D8000025585EACE710AD05FEA440C18BF24F000
:100D9000004450F1000041F1000120EAD47040F21B
:100DA000FE7C624500D270BDA84214BF4FF0804463
:100DB0004FF04044002E08BF0024BEF1806FA8BF52
:100DC000A1F1C041BDE8704080F2828001F1C041D4
:100DD00001F000414FF0000070470CEA13159EEA45
:100DE0000C0F18BF95EA0C0F06D081EA030E4FF0E6
:100DF00000000EF0004170BD00F01CF88900013EBB
:100E000000F007B800F009B84FEA430C5FEA5C5CF9
:100E100008D081EA030100F05BB84FEA410C5FEAB9
:100E20005C5CF6D102494FF0000070470000FF07FC
:100E30000000F87F0EF1020E2EF0030E5EF8046B38
:100E4000364205D4012A43EB030515F5001F12D8DD
:100E5000012841EB010C1CF5001F0CD80ED14FEA04
:100E6000D17C0CEB4C0C0CF1020C15F5001F08BFEB
:100E70004CEBD37C04E04FF0080C01E04FEAD37C4C
:100E80000CEB4C0526FA05F606F00706B6F1040C45
:100E900006D20EEB860CBDE870404CF0010C6047AA
:100EA000DFE80CF0090B02024FF00041A1F5002130
:100EB0004FF0000070BD19461046012851EB0104A7
:100EC00018BFD4F5001484BF002001F0004170BDAC
:100ED0000808A0F500114FEA3101704743004FEABE
:100EE000D30C4FEA3C0C43401FBF40070CF160514C
:100EF00013F0FE4F70471CF0006F03D10CF000415F
:100F0000002070470CF0004343EA507040EACC00E8
:100F100010B500F00EF800BF000000924FEA00018B
:100F2000FFF7D6BF4FF00041A1F500214FF00000C0
:100F300070470EF1020E2EF0030E5EF8044B2442B1
:100F400004D44FEA4102B2F17F4F11D84FEA400377
:100F5000B3F17F4F0CD80ED14FEAD07C0CEB4C0C88
:100F60000CF1020CB2F17F4F08BF4CEBD17C04E0D6
:100F70004FF0080C01E04FEAD17C0CEB4C0324FA53
:100F800003F404F00704B4F1040C06D20EEB840C55
:100F9000BDE810404CF0010C6047DFE80CF007089A
:100FA00002024FF00040A0F5800010BD084642004C
:100FB00018BFD2F1807288BF00F0004010BDF1EE82
:100FC000100A4FF6FF71C0F2C03120EA010040F074
:100FD0004070E1EE100A7047FF2141EAD050C00591
:100FE0007047000008100008000000200800000002
:100FF000C40100081010000808000020700600005E
:10100000E0010008000000000100000000000000F6
:040000050800018965
:00000001FF
